{
  "contractName": "EIP712Base",
  "abi": [
    {
      "inputs": [],
      "name": "ERC712_VERSION",
      "outputs": [
        {
          "internalType": "string",
          "name": "",
          "type": "string"
        }
      ],
      "stateMutability": "view",
      "type": "function"
    },
    {
      "inputs": [],
      "name": "getDomainSeperator",
      "outputs": [
        {
          "internalType": "bytes32",
          "name": "",
          "type": "bytes32"
        }
      ],
      "stateMutability": "view",
      "type": "function"
    },
    {
      "inputs": [],
      "name": "getChainId",
      "outputs": [
        {
          "internalType": "uint256",
          "name": "",
          "type": "uint256"
        }
      ],
      "stateMutability": "view",
      "type": "function"
    }
  ],
  "bytecode": "0x608060405260008060006101000a81548160ff02191690831515021790555034801561002a57600080fd5b506102498061003a6000396000f3fe608060405234801561001057600080fd5b50600436106100415760003560e01c80630f7e59701461004657806320379ee5146100645780633408e47014610082575b600080fd5b61004e6100a0565b60405161005b9190610162565b60405180910390f35b61006c6100d9565b6040516100799190610147565b60405180910390f35b61008a6100e3565b6040516100979190610184565b60405180910390f35b6040518060400160405280600181526020017f310000000000000000000000000000000000000000000000000000000000000081525081565b6000600154905090565b6000804690508091505090565b6100f9816101bb565b82525050565b600061010a8261019f565b61011481856101aa565b93506101248185602086016101cf565b61012d81610202565b840191505092915050565b610141816101c5565b82525050565b600060208201905061015c60008301846100f0565b92915050565b6000602082019050818103600083015261017c81846100ff565b905092915050565b60006020820190506101996000830184610138565b92915050565b600081519050919050565b600082825260208201905092915050565b6000819050919050565b6000819050919050565b60005b838110156101ed5780820151818401526020810190506101d2565b838111156101fc576000848401525b50505050565b6000601f19601f830116905091905056fea2646970667358221220bccba3a64ab3000c7aa964c7fa4093b8ebb0cb6deaaf9977f1bcfd60ac89410d64736f6c63430008010033",
  "immutableReferences": {},
  "source": "// SPDX-License-Identifier: MIT\npragma solidity ^0.8.0;\n\nimport \"@openzeppelin/contracts/token/ERC721/ERC721.sol\";\nimport \"@openzeppelin/contracts/utils/Counters.sol\";\nimport \"@openzeppelin/contracts/access/Ownable.sol\";\n\n/**\n * https://github.com/maticnetwork/pos-portal/blob/master/contracts/common/ContextMixin.sol\n */\nabstract contract ContextMixin {\n    function msgSender()\n        internal\n        view\n        returns (address payable sender)\n    {\n        if (msg.sender == address(this)) {\n            bytes memory array = msg.data;\n            uint256 index = msg.data.length;\n            assembly {\n                // Load the 32 bytes word from memory with the address on the lower 20 bytes, \n                // and mask those.\n                sender := and(\n                    mload(add(array, index)),\n                    0xffffffffffffffffffffffffffffffffffffffff\n                )\n            }\n        } else {\n            sender = payable(msg.sender);\n        }\n        return sender;\n    }\n}\n\n/**\n * https://github.com/maticnetwork/pos-portal/blob/master/contracts/common/Initializable.sol\n */\ncontract Initializable {\n    bool inited = false;\n\n    modifier initializer() {\n        require(!inited, \"already inited\");\n        _;\n        inited = true;\n    }\n}\n\n/**\n * https://github.com/maticnetwork/pos-portal/blob/master/contracts/common/EIP712Base.sol\n */\ncontract EIP712Base is Initializable {\n    struct EIP712Domain {\n        string name;\n        string version;\n        address verifyingContract;\n        bytes32 salt;\n    }\n\n    string constant public ERC712_VERSION = \"1\";\n\n    bytes32 internal constant EIP712_DOMAIN_TYPEHASH = keccak256(\n        bytes(\n            \"EIP712Domain(string name,string version,address verifyingContract,bytes32 salt)\"\n        )\n    );\n    bytes32 internal domainSeperator;\n\n    // supposed to be called once while initializing.\n    // one of the contractsa that inherits this contract follows proxy pattern\n    // so it is not possible to do this in a constructor\n    function _initializeEIP712(\n        string memory name\n    )\n        internal\n        initializer\n    {\n        _setDomainSeperator(name);\n    }\n\n    function _setDomainSeperator(string memory name) internal {\n        domainSeperator = keccak256(\n            abi.encode(\n                EIP712_DOMAIN_TYPEHASH,\n                keccak256(bytes(name)),\n                keccak256(bytes(ERC712_VERSION)),\n                address(this),\n                bytes32(getChainId())\n            )\n        );\n    }\n\n    function getDomainSeperator() public view returns (bytes32) {\n        return domainSeperator;\n    }\n\n    function getChainId() public view returns (uint256) {\n        uint256 id;\n        assembly {\n            id := chainid()\n        }\n        return id;\n    }\n\n    /**\n     * Accept message hash and returns hash message in EIP712 compatible form\n     * So that it can be used to recover signer from signature signed using EIP712 formatted data\n     * https://eips.ethereum.org/EIPS/eip-712\n     * \"\\\\x19\" makes the encoding deterministic\n     * \"\\\\x01\" is the version byte to make it compatible to EIP-191\n     */\n    function toTypedMessageHash(bytes32 messageHash)\n        internal\n        view\n        returns (bytes32)\n    {\n        return\n            keccak256(\n                abi.encodePacked(\"\\x19\\x01\", getDomainSeperator(), messageHash)\n            );\n    }\n}\n\n/**\n * https://github.com/maticnetwork/pos-portal/blob/master/contracts/common/NativeMetaTransaction.sol\n */\ncontract NativeMetaTransaction is EIP712Base {\n    bytes32 private constant META_TRANSACTION_TYPEHASH = keccak256(\n        bytes(\n            \"MetaTransaction(uint256 nonce,address from,bytes functionSignature)\"\n        )\n    );\n    event MetaTransactionExecuted(\n        address userAddress,\n        address payable relayerAddress,\n        bytes functionSignature\n    );\n    mapping(address => uint256) nonces;\n\n    /*\n     * Meta transaction structure.\n     * No point of including value field here as if user is doing value transfer then he has the \n     * funds to pay for gas.\n     * He should call the desired function directly in that case.\n     */\n    struct MetaTransaction {\n        uint256 nonce;\n        address from;\n        bytes functionSignature;\n    }\n\n    function executeMetaTransaction(\n        address userAddress,\n        bytes memory functionSignature,\n        bytes32 sigR,\n        bytes32 sigS,\n        uint8 sigV\n    ) public payable returns (bytes memory) {\n        MetaTransaction memory metaTx = MetaTransaction({\n            nonce: nonces[userAddress],\n            from: userAddress,\n            functionSignature: functionSignature\n        });\n        require(\n            verify(userAddress, metaTx, sigR, sigS, sigV),\n            \"Signer and signature do not match\"\n        );\n\n        // increase nonce for user (to avoid re-use)\n        nonces[userAddress] = nonces[userAddress] + 1;\n\n        emit MetaTransactionExecuted(\n            userAddress,\n            payable(msg.sender),\n            functionSignature\n        );\n\n        // Append userAddress and relayer address at the end to extract it from calling context\n        (bool success, bytes memory returnData) = address(this).call(\n            abi.encodePacked(functionSignature, userAddress)\n        );\n        require(success, \"Function call not successful\");\n\n        return returnData;\n    }\n\n    function hashMetaTransaction(MetaTransaction memory metaTx)\n        internal\n        pure\n        returns (bytes32)\n    {\n        return\n            keccak256(\n                abi.encode(\n                    META_TRANSACTION_TYPEHASH,\n                    metaTx.nonce,\n                    metaTx.from,\n                    keccak256(metaTx.functionSignature)\n                )\n            );\n    }\n\n    function getNonce(address user) public view returns (uint256 nonce) {\n        nonce = nonces[user];\n    }\n\n    function verify(\n        address signer,\n        MetaTransaction memory metaTx,\n        bytes32 sigR,\n        bytes32 sigS,\n        uint8 sigV\n    ) internal view returns (bool) {\n        require(signer != address(0), \"NativeMetaTransaction: INVALID_SIGNER\");\n        return\n            signer ==\n            ecrecover(\n                toTypedMessageHash(hashMetaTransaction(metaTx)),\n                sigV,\n                sigR,\n                sigS\n            );\n    }\n}\n\ncontract NFTPhotocopier is ERC721, ContextMixin, NativeMetaTransaction, Ownable {\n\n    using Counters for Counters.Counter;\n    \n    Counters.Counter private _tokenIds;\n\n    mapping (uint256 => string) private _tokenURIs;\n\n    uint256 COPY_PRICE = 5 ether;\n\n    constructor () ERC721(\"NFTPhotocopier\", \"NFTP\") {\n        _initializeEIP712(\"NFTPhotocopier\");\n    }\n\n    /**\n     * This is used instead of msg.sender as transactions won't be sent by the original token owner, \n     * but by OpenSea.\n     */\n    function _msgSender()\n        internal\n        override\n        view\n        returns (address sender)\n    {\n        return ContextMixin.msgSender();\n    }\n\n    /**\n    * As another option for supporting trading without requiring meta transactions, \n    * override isApprovedForAll to whitelist OpenSea proxy accounts on Matic\n    */\n    function isApprovedForAll(\n        address _owner,\n        address _operator\n    ) public override view returns (bool isOperator) {\n        if (_operator == address(0x58807baD0B376efc12F5AD86aAc70E78ed67deaE)) {\n            return true;\n        }\n        \n        return ERC721.isApprovedForAll(_owner, _operator);\n    }\n\n    function compareStrings(\n        string memory a, \n        string memory b\n    ) public pure returns (bool) {\n        return (keccak256(abi.encodePacked((a))) == keccak256(abi.encodePacked((b))));\n    }\n\n    /**\n    * \n     */\n    function photocopyNft(\n        string memory originalURI\n    ) public payable returns (uint256) {\n\n        // require(msg.value >= COPY_PRICE);\n\n        for (uint i = 0; i <= _tokenIds.current(); i++) {\n            string memory existingURI = tokenURI(i);\n            if (compareStrings(originalURI, existingURI)) {\n                revert(\"Copy already exists\");\n            }\n        }\n\n        _tokenIds.increment();\n\n        uint256 newItemId = _tokenIds.current();\n        _safeMint(msg.sender, newItemId);\n        _tokenURIs[newItemId] = originalURI;\n\n        return newItemId;\n    }\n\n    function claimEarnings() public onlyOwner {\n        uint256 balance = address(this).balance;\n        address payable sender = payable(msg.sender);\n        sender.transfer(balance);\n    }\n\n    function tokenURI(\n        uint256 tokenId\n    ) public view virtual override returns (string memory) {\n        require(_exists(tokenId), \"ERC721Metadata: URI query for nonexistent token\");\n        return _tokenURIs[tokenId];\n    }\n}",
  "sourcePath": "D:\\dapps\\nftphotocopier\\contracts\\NFTPhotocopier.sol",
  "compiler": {
    "name": "solc",
    "version": "0.8.1+commit.df193b15.Emscripten.clang"
  },
  "schemaVersion": "3.4.5",
  "updatedAt": "2022-03-16T07:06:33.228Z",
  "devdoc": {
    "kind": "dev",
    "methods": {},
    "version": 1
  },
  "userdoc": {
    "kind": "user",
    "methods": {},
    "notice": "https://github.com/maticnetwork/pos-portal/blob/master/contracts/common/EIP712Base.sol",
    "version": 1
  }
}