{
  "contractName": "NativeMetaTransaction",
  "abi": [
    {
      "anonymous": false,
      "inputs": [
        {
          "indexed": false,
          "internalType": "address",
          "name": "userAddress",
          "type": "address"
        },
        {
          "indexed": false,
          "internalType": "address payable",
          "name": "relayerAddress",
          "type": "address"
        },
        {
          "indexed": false,
          "internalType": "bytes",
          "name": "functionSignature",
          "type": "bytes"
        }
      ],
      "name": "MetaTransactionExecuted",
      "type": "event"
    },
    {
      "inputs": [],
      "name": "ERC712_VERSION",
      "outputs": [
        {
          "internalType": "string",
          "name": "",
          "type": "string"
        }
      ],
      "stateMutability": "view",
      "type": "function"
    },
    {
      "inputs": [],
      "name": "getChainId",
      "outputs": [
        {
          "internalType": "uint256",
          "name": "",
          "type": "uint256"
        }
      ],
      "stateMutability": "view",
      "type": "function"
    },
    {
      "inputs": [],
      "name": "getDomainSeperator",
      "outputs": [
        {
          "internalType": "bytes32",
          "name": "",
          "type": "bytes32"
        }
      ],
      "stateMutability": "view",
      "type": "function"
    },
    {
      "inputs": [
        {
          "internalType": "address",
          "name": "userAddress",
          "type": "address"
        },
        {
          "internalType": "bytes",
          "name": "functionSignature",
          "type": "bytes"
        },
        {
          "internalType": "bytes32",
          "name": "sigR",
          "type": "bytes32"
        },
        {
          "internalType": "bytes32",
          "name": "sigS",
          "type": "bytes32"
        },
        {
          "internalType": "uint8",
          "name": "sigV",
          "type": "uint8"
        }
      ],
      "name": "executeMetaTransaction",
      "outputs": [
        {
          "internalType": "bytes",
          "name": "",
          "type": "bytes"
        }
      ],
      "stateMutability": "payable",
      "type": "function"
    },
    {
      "inputs": [
        {
          "internalType": "address",
          "name": "user",
          "type": "address"
        }
      ],
      "name": "getNonce",
      "outputs": [
        {
          "internalType": "uint256",
          "name": "nonce",
          "type": "uint256"
        }
      ],
      "stateMutability": "view",
      "type": "function"
    }
  ],
  "bytecode": "0x608060405260008060006101000a81548160ff02191690831515021790555034801561002a57600080fd5b50610f348061003a6000396000f3fe60806040526004361061004a5760003560e01c80630c53c51c1461004f5780630f7e59701461007f57806320379ee5146100aa5780632d0335ab146100d55780633408e47014610112575b600080fd5b610069600480360381019061006491906106bb565b61013d565b6040516100769190610a4b565b60405180910390f35b34801561008b57600080fd5b506100946103a8565b6040516100a19190610a6d565b60405180910390f35b3480156100b657600080fd5b506100bf6103e1565b6040516100cc91906109a6565b60405180910390f35b3480156100e157600080fd5b506100fc60048036038101906100f79190610692565b6103eb565b6040516101099190610aef565b60405180910390f35b34801561011e57600080fd5b50610127610434565b6040516101349190610aef565b60405180910390f35b606060006040518060600160405280600260008a73ffffffffffffffffffffffffffffffffffffffff1673ffffffffffffffffffffffffffffffffffffffff1681526020019081526020016000205481526020018873ffffffffffffffffffffffffffffffffffffffff1681526020018781525090506101c08782878787610441565b6101ff576040517f08c379a00000000000000000000000000000000000000000000000000000000081526004016101f690610acf565b60405180910390fd5b6001600260008973ffffffffffffffffffffffffffffffffffffffff1673ffffffffffffffffffffffffffffffffffffffff1681526020019081526020016000205461024b9190610bae565b600260008973ffffffffffffffffffffffffffffffffffffffff1673ffffffffffffffffffffffffffffffffffffffff168152602001908152602001600020819055507f5845892132946850460bff5a0083f71031bc5bf9aadcd40f1de79423eac9b10b8733886040516102c193929190610968565b60405180910390a16000803073ffffffffffffffffffffffffffffffffffffffff16888a6040516020016102f6929190610909565b60405160208183030381529060405260405161031291906108f2565b6000604051808303816000865af19150503d806000811461034f576040519150601f19603f3d011682016040523d82523d6000602084013e610354565b606091505b509150915081610399576040517f08c379a000000000000000000000000000000000000000000000000000000000815260040161039090610a8f565b60405180910390fd5b80935050505095945050505050565b6040518060400160405280600181526020017f310000000000000000000000000000000000000000000000000000000000000081525081565b6000600154905090565b6000600260008373ffffffffffffffffffffffffffffffffffffffff1673ffffffffffffffffffffffffffffffffffffffff168152602001908152602001600020549050919050565b6000804690508091505090565b60008073ffffffffffffffffffffffffffffffffffffffff168673ffffffffffffffffffffffffffffffffffffffff1614156104b2576040517f08c379a00000000000000000000000000000000000000000000000000000000081526004016104a990610aaf565b60405180910390fd5b60016104c56104c08761054a565b6105b2565b838686604051600081526020016040526040516104e59493929190610a06565b6020604051602081039080840390855afa158015610507573d6000803e3d6000fd5b5050506020604051035173ffffffffffffffffffffffffffffffffffffffff168673ffffffffffffffffffffffffffffffffffffffff1614905095945050505050565b6000604051806080016040528060438152602001610ebc60439139805190602001208260000151836020015184604001518051906020012060405160200161059594939291906109c1565b604051602081830303815290604052805190602001209050919050565b60006105bc6103e1565b826040516020016105ce929190610931565b604051602081830303815290604052805190602001209050919050565b60006105fe6105f984610b2f565b610b0a565b90508281526020810184848401111561061657600080fd5b610621848285610c69565b509392505050565b60008135905061063881610e76565b92915050565b60008135905061064d81610e8d565b92915050565b600082601f83011261066457600080fd5b81356106748482602086016105eb565b91505092915050565b60008135905061068c81610ea4565b92915050565b6000602082840312156106a457600080fd5b60006106b284828501610629565b91505092915050565b600080600080600060a086880312156106d357600080fd5b60006106e188828901610629565b955050602086013567ffffffffffffffff8111156106fe57600080fd5b61070a88828901610653565b945050604061071b8882890161063e565b935050606061072c8882890161063e565b925050608061073d8882890161067d565b9150509295509295909350565b61075381610c16565b82525050565b61076281610c04565b82525050565b61077961077482610c04565b610cdc565b82525050565b61078881610c28565b82525050565b61079f61079a82610c28565b610cee565b82525050565b60006107b082610b60565b6107ba8185610b76565b93506107ca818560208601610c78565b6107d381610d68565b840191505092915050565b60006107e982610b60565b6107f38185610b87565b9350610803818560208601610c78565b80840191505092915050565b600061081a82610b6b565b6108248185610b92565b9350610834818560208601610c78565b61083d81610d68565b840191505092915050565b6000610855601c83610b92565b915061086082610d86565b602082019050919050565b6000610878600283610ba3565b915061088382610daf565b600282019050919050565b600061089b602583610b92565b91506108a682610dd8565b604082019050919050565b60006108be602183610b92565b91506108c982610e27565b604082019050919050565b6108dd81610c52565b82525050565b6108ec81610c5c565b82525050565b60006108fe82846107de565b915081905092915050565b600061091582856107de565b91506109218284610768565b6014820191508190509392505050565b600061093c8261086b565b9150610948828561078e565b602082019150610958828461078e565b6020820191508190509392505050565b600060608201905061097d6000830186610759565b61098a602083018561074a565b818103604083015261099c81846107a5565b9050949350505050565b60006020820190506109bb600083018461077f565b92915050565b60006080820190506109d6600083018761077f565b6109e360208301866108d4565b6109f06040830185610759565b6109fd606083018461077f565b95945050505050565b6000608082019050610a1b600083018761077f565b610a2860208301866108e3565b610a35604083018561077f565b610a42606083018461077f565b95945050505050565b60006020820190508181036000830152610a6581846107a5565b905092915050565b60006020820190508181036000830152610a87818461080f565b905092915050565b60006020820190508181036000830152610aa881610848565b9050919050565b60006020820190508181036000830152610ac88161088e565b9050919050565b60006020820190508181036000830152610ae8816108b1565b9050919050565b6000602082019050610b0460008301846108d4565b92915050565b6000610b14610b25565b9050610b208282610cab565b919050565b6000604051905090565b600067ffffffffffffffff821115610b4a57610b49610d39565b5b610b5382610d68565b9050602081019050919050565b600081519050919050565b600081519050919050565b600082825260208201905092915050565b600081905092915050565b600082825260208201905092915050565b600081905092915050565b6000610bb982610c52565b9150610bc483610c52565b9250827fffffffffffffffffffffffffffffffffffffffffffffffffffffffffffffffff03821115610bf957610bf8610d0a565b5b828201905092915050565b6000610c0f82610c32565b9050919050565b6000610c2182610c32565b9050919050565b6000819050919050565b600073ffffffffffffffffffffffffffffffffffffffff82169050919050565b6000819050919050565b600060ff82169050919050565b82818337600083830152505050565b60005b83811015610c96578082015181840152602081019050610c7b565b83811115610ca5576000848401525b50505050565b610cb482610d68565b810181811067ffffffffffffffff82111715610cd357610cd2610d39565b5b80604052505050565b6000610ce782610cf8565b9050919050565b6000819050919050565b6000610d0382610d79565b9050919050565b7f4e487b7100000000000000000000000000000000000000000000000000000000600052601160045260246000fd5b7f4e487b7100000000000000000000000000000000000000000000000000000000600052604160045260246000fd5b6000601f19601f8301169050919050565b60008160601b9050919050565b7f46756e6374696f6e2063616c6c206e6f74207375636365737366756c00000000600082015250565b7f1901000000000000000000000000000000000000000000000000000000000000600082015250565b7f4e61746976654d6574615472616e73616374696f6e3a20494e56414c49445f5360008201527f49474e4552000000000000000000000000000000000000000000000000000000602082015250565b7f5369676e657220616e64207369676e617475726520646f206e6f74206d61746360008201527f6800000000000000000000000000000000000000000000000000000000000000602082015250565b610e7f81610c04565b8114610e8a57600080fd5b50565b610e9681610c28565b8114610ea157600080fd5b50565b610ead81610c5c565b8114610eb857600080fd5b5056fe4d6574615472616e73616374696f6e2875696e74323536206e6f6e63652c616464726573732066726f6d2c62797465732066756e6374696f6e5369676e617475726529a2646970667358221220062dcaaf0e7efc22daf56243eb6e3bb80bbadceb730ac6c7e1146003785c7ad664736f6c63430008010033",
  "immutableReferences": {},
  "source": "// SPDX-License-Identifier: MIT\npragma solidity ^0.8.0;\n\nimport \"@openzeppelin/contracts/token/ERC721/ERC721.sol\";\nimport \"@openzeppelin/contracts/utils/Counters.sol\";\nimport \"@openzeppelin/contracts/access/Ownable.sol\";\n\n/**\n * https://github.com/maticnetwork/pos-portal/blob/master/contracts/common/ContextMixin.sol\n */\nabstract contract ContextMixin {\n    function msgSender()\n        internal\n        view\n        returns (address payable sender)\n    {\n        if (msg.sender == address(this)) {\n            bytes memory array = msg.data;\n            uint256 index = msg.data.length;\n            assembly {\n                // Load the 32 bytes word from memory with the address on the lower 20 bytes, \n                // and mask those.\n                sender := and(\n                    mload(add(array, index)),\n                    0xffffffffffffffffffffffffffffffffffffffff\n                )\n            }\n        } else {\n            sender = payable(msg.sender);\n        }\n        return sender;\n    }\n}\n\n/**\n * https://github.com/maticnetwork/pos-portal/blob/master/contracts/common/Initializable.sol\n */\ncontract Initializable {\n    bool inited = false;\n\n    modifier initializer() {\n        require(!inited, \"already inited\");\n        _;\n        inited = true;\n    }\n}\n\n/**\n * https://github.com/maticnetwork/pos-portal/blob/master/contracts/common/EIP712Base.sol\n */\ncontract EIP712Base is Initializable {\n    struct EIP712Domain {\n        string name;\n        string version;\n        address verifyingContract;\n        bytes32 salt;\n    }\n\n    string constant public ERC712_VERSION = \"1\";\n\n    bytes32 internal constant EIP712_DOMAIN_TYPEHASH = keccak256(\n        bytes(\n            \"EIP712Domain(string name,string version,address verifyingContract,bytes32 salt)\"\n        )\n    );\n    bytes32 internal domainSeperator;\n\n    // supposed to be called once while initializing.\n    // one of the contractsa that inherits this contract follows proxy pattern\n    // so it is not possible to do this in a constructor\n    function _initializeEIP712(\n        string memory name\n    )\n        internal\n        initializer\n    {\n        _setDomainSeperator(name);\n    }\n\n    function _setDomainSeperator(string memory name) internal {\n        domainSeperator = keccak256(\n            abi.encode(\n                EIP712_DOMAIN_TYPEHASH,\n                keccak256(bytes(name)),\n                keccak256(bytes(ERC712_VERSION)),\n                address(this),\n                bytes32(getChainId())\n            )\n        );\n    }\n\n    function getDomainSeperator() public view returns (bytes32) {\n        return domainSeperator;\n    }\n\n    function getChainId() public view returns (uint256) {\n        uint256 id;\n        assembly {\n            id := chainid()\n        }\n        return id;\n    }\n\n    /**\n     * Accept message hash and returns hash message in EIP712 compatible form\n     * So that it can be used to recover signer from signature signed using EIP712 formatted data\n     * https://eips.ethereum.org/EIPS/eip-712\n     * \"\\\\x19\" makes the encoding deterministic\n     * \"\\\\x01\" is the version byte to make it compatible to EIP-191\n     */\n    function toTypedMessageHash(bytes32 messageHash)\n        internal\n        view\n        returns (bytes32)\n    {\n        return\n            keccak256(\n                abi.encodePacked(\"\\x19\\x01\", getDomainSeperator(), messageHash)\n            );\n    }\n}\n\n/**\n * https://github.com/maticnetwork/pos-portal/blob/master/contracts/common/NativeMetaTransaction.sol\n */\ncontract NativeMetaTransaction is EIP712Base {\n    bytes32 private constant META_TRANSACTION_TYPEHASH = keccak256(\n        bytes(\n            \"MetaTransaction(uint256 nonce,address from,bytes functionSignature)\"\n        )\n    );\n    event MetaTransactionExecuted(\n        address userAddress,\n        address payable relayerAddress,\n        bytes functionSignature\n    );\n    mapping(address => uint256) nonces;\n\n    /*\n     * Meta transaction structure.\n     * No point of including value field here as if user is doing value transfer then he has the \n     * funds to pay for gas.\n     * He should call the desired function directly in that case.\n     */\n    struct MetaTransaction {\n        uint256 nonce;\n        address from;\n        bytes functionSignature;\n    }\n\n    function executeMetaTransaction(\n        address userAddress,\n        bytes memory functionSignature,\n        bytes32 sigR,\n        bytes32 sigS,\n        uint8 sigV\n    ) public payable returns (bytes memory) {\n        MetaTransaction memory metaTx = MetaTransaction({\n            nonce: nonces[userAddress],\n            from: userAddress,\n            functionSignature: functionSignature\n        });\n        require(\n            verify(userAddress, metaTx, sigR, sigS, sigV),\n            \"Signer and signature do not match\"\n        );\n\n        // increase nonce for user (to avoid re-use)\n        nonces[userAddress] = nonces[userAddress] + 1;\n\n        emit MetaTransactionExecuted(\n            userAddress,\n            payable(msg.sender),\n            functionSignature\n        );\n\n        // Append userAddress and relayer address at the end to extract it from calling context\n        (bool success, bytes memory returnData) = address(this).call(\n            abi.encodePacked(functionSignature, userAddress)\n        );\n        require(success, \"Function call not successful\");\n\n        return returnData;\n    }\n\n    function hashMetaTransaction(MetaTransaction memory metaTx)\n        internal\n        pure\n        returns (bytes32)\n    {\n        return\n            keccak256(\n                abi.encode(\n                    META_TRANSACTION_TYPEHASH,\n                    metaTx.nonce,\n                    metaTx.from,\n                    keccak256(metaTx.functionSignature)\n                )\n            );\n    }\n\n    function getNonce(address user) public view returns (uint256 nonce) {\n        nonce = nonces[user];\n    }\n\n    function verify(\n        address signer,\n        MetaTransaction memory metaTx,\n        bytes32 sigR,\n        bytes32 sigS,\n        uint8 sigV\n    ) internal view returns (bool) {\n        require(signer != address(0), \"NativeMetaTransaction: INVALID_SIGNER\");\n        return\n            signer ==\n            ecrecover(\n                toTypedMessageHash(hashMetaTransaction(metaTx)),\n                sigV,\n                sigR,\n                sigS\n            );\n    }\n}\n\ncontract NFTPhotocopier is ERC721, ContextMixin, NativeMetaTransaction, Ownable {\n\n    using Counters for Counters.Counter;\n    \n    Counters.Counter private _tokenIds;\n\n    mapping (uint256 => string) private _tokenURIs;\n\n    uint256 COPY_PRICE = 5 ether;\n\n    constructor () ERC721(\"NFTPhotocopier\", \"NFTP\") {\n        _initializeEIP712(\"NFTPhotocopier\");\n    }\n\n    /**\n     * This is used instead of msg.sender as transactions won't be sent by the original token owner, \n     * but by OpenSea.\n     */\n    function _msgSender()\n        internal\n        override\n        view\n        returns (address sender)\n    {\n        return ContextMixin.msgSender();\n    }\n\n    /**\n    * As another option for supporting trading without requiring meta transactions, \n    * override isApprovedForAll to whitelist OpenSea proxy accounts on Matic\n    */\n    function isApprovedForAll(\n        address _owner,\n        address _operator\n    ) public override view returns (bool isOperator) {\n        if (_operator == address(0x58807baD0B376efc12F5AD86aAc70E78ed67deaE)) {\n            return true;\n        }\n        \n        return ERC721.isApprovedForAll(_owner, _operator);\n    }\n\n    function compareStrings(\n        string memory a, \n        string memory b\n    ) public pure returns (bool) {\n        return (keccak256(abi.encodePacked((a))) == keccak256(abi.encodePacked((b))));\n    }\n\n    /**\n    * \n     */\n    function photocopyNft(\n        string memory originalURI\n    ) public payable returns (uint256) {\n\n        // require(msg.value >= COPY_PRICE);\n\n        for (uint i = 0; i <= _tokenIds.current(); i++) {\n            string memory existingURI = tokenURI(i);\n            if (compareStrings(originalURI, existingURI)) {\n                revert(\"Copy already exists\");\n            }\n        }\n\n        _tokenIds.increment();\n\n        uint256 newItemId = _tokenIds.current();\n        _safeMint(msg.sender, newItemId);\n        _tokenURIs[newItemId] = originalURI;\n\n        return newItemId;\n    }\n\n    function claimEarnings() public onlyOwner {\n        uint256 balance = address(this).balance;\n        address payable sender = payable(msg.sender);\n        sender.transfer(balance);\n    }\n\n    function tokenURI(\n        uint256 tokenId\n    ) public view virtual override returns (string memory) {\n        require(_exists(tokenId), \"ERC721Metadata: URI query for nonexistent token\");\n        return _tokenURIs[tokenId];\n    }\n}",
  "sourcePath": "D:\\dapps\\nftphotocopier\\contracts\\NFTPhotocopier.sol",
  "compiler": {
    "name": "solc",
    "version": "0.8.1+commit.df193b15.Emscripten.clang"
  },
  "schemaVersion": "3.4.5",
  "updatedAt": "2022-03-16T07:06:33.293Z",
  "devdoc": {
    "kind": "dev",
    "methods": {},
    "version": 1
  },
  "userdoc": {
    "kind": "user",
    "methods": {},
    "notice": "https://github.com/maticnetwork/pos-portal/blob/master/contracts/common/NativeMetaTransaction.sol",
    "version": 1
  }
}