{
  "contractName": "NFTPhotocopier",
  "abi": [
    {
      "inputs": [],
      "stateMutability": "nonpayable",
      "type": "constructor"
    },
    {
      "anonymous": false,
      "inputs": [
        {
          "indexed": true,
          "internalType": "address",
          "name": "owner",
          "type": "address"
        },
        {
          "indexed": true,
          "internalType": "address",
          "name": "approved",
          "type": "address"
        },
        {
          "indexed": true,
          "internalType": "uint256",
          "name": "tokenId",
          "type": "uint256"
        }
      ],
      "name": "Approval",
      "type": "event"
    },
    {
      "anonymous": false,
      "inputs": [
        {
          "indexed": true,
          "internalType": "address",
          "name": "owner",
          "type": "address"
        },
        {
          "indexed": true,
          "internalType": "address",
          "name": "operator",
          "type": "address"
        },
        {
          "indexed": false,
          "internalType": "bool",
          "name": "approved",
          "type": "bool"
        }
      ],
      "name": "ApprovalForAll",
      "type": "event"
    },
    {
      "anonymous": false,
      "inputs": [
        {
          "indexed": false,
          "internalType": "address",
          "name": "userAddress",
          "type": "address"
        },
        {
          "indexed": false,
          "internalType": "address payable",
          "name": "relayerAddress",
          "type": "address"
        },
        {
          "indexed": false,
          "internalType": "bytes",
          "name": "functionSignature",
          "type": "bytes"
        }
      ],
      "name": "MetaTransactionExecuted",
      "type": "event"
    },
    {
      "anonymous": false,
      "inputs": [
        {
          "indexed": true,
          "internalType": "address",
          "name": "previousOwner",
          "type": "address"
        },
        {
          "indexed": true,
          "internalType": "address",
          "name": "newOwner",
          "type": "address"
        }
      ],
      "name": "OwnershipTransferred",
      "type": "event"
    },
    {
      "anonymous": false,
      "inputs": [
        {
          "indexed": true,
          "internalType": "address",
          "name": "from",
          "type": "address"
        },
        {
          "indexed": true,
          "internalType": "address",
          "name": "to",
          "type": "address"
        },
        {
          "indexed": true,
          "internalType": "uint256",
          "name": "tokenId",
          "type": "uint256"
        }
      ],
      "name": "Transfer",
      "type": "event"
    },
    {
      "inputs": [],
      "name": "ERC712_VERSION",
      "outputs": [
        {
          "internalType": "string",
          "name": "",
          "type": "string"
        }
      ],
      "stateMutability": "view",
      "type": "function",
      "constant": true
    },
    {
      "inputs": [
        {
          "internalType": "address",
          "name": "to",
          "type": "address"
        },
        {
          "internalType": "uint256",
          "name": "tokenId",
          "type": "uint256"
        }
      ],
      "name": "approve",
      "outputs": [],
      "stateMutability": "nonpayable",
      "type": "function"
    },
    {
      "inputs": [
        {
          "internalType": "address",
          "name": "owner",
          "type": "address"
        }
      ],
      "name": "balanceOf",
      "outputs": [
        {
          "internalType": "uint256",
          "name": "",
          "type": "uint256"
        }
      ],
      "stateMutability": "view",
      "type": "function",
      "constant": true
    },
    {
      "inputs": [
        {
          "internalType": "address",
          "name": "userAddress",
          "type": "address"
        },
        {
          "internalType": "bytes",
          "name": "functionSignature",
          "type": "bytes"
        },
        {
          "internalType": "bytes32",
          "name": "sigR",
          "type": "bytes32"
        },
        {
          "internalType": "bytes32",
          "name": "sigS",
          "type": "bytes32"
        },
        {
          "internalType": "uint8",
          "name": "sigV",
          "type": "uint8"
        }
      ],
      "name": "executeMetaTransaction",
      "outputs": [
        {
          "internalType": "bytes",
          "name": "",
          "type": "bytes"
        }
      ],
      "stateMutability": "payable",
      "type": "function",
      "payable": true
    },
    {
      "inputs": [
        {
          "internalType": "uint256",
          "name": "tokenId",
          "type": "uint256"
        }
      ],
      "name": "getApproved",
      "outputs": [
        {
          "internalType": "address",
          "name": "",
          "type": "address"
        }
      ],
      "stateMutability": "view",
      "type": "function",
      "constant": true
    },
    {
      "inputs": [],
      "name": "getChainId",
      "outputs": [
        {
          "internalType": "uint256",
          "name": "",
          "type": "uint256"
        }
      ],
      "stateMutability": "view",
      "type": "function",
      "constant": true
    },
    {
      "inputs": [],
      "name": "getDomainSeperator",
      "outputs": [
        {
          "internalType": "bytes32",
          "name": "",
          "type": "bytes32"
        }
      ],
      "stateMutability": "view",
      "type": "function",
      "constant": true
    },
    {
      "inputs": [
        {
          "internalType": "address",
          "name": "user",
          "type": "address"
        }
      ],
      "name": "getNonce",
      "outputs": [
        {
          "internalType": "uint256",
          "name": "nonce",
          "type": "uint256"
        }
      ],
      "stateMutability": "view",
      "type": "function",
      "constant": true
    },
    {
      "inputs": [],
      "name": "name",
      "outputs": [
        {
          "internalType": "string",
          "name": "",
          "type": "string"
        }
      ],
      "stateMutability": "view",
      "type": "function",
      "constant": true
    },
    {
      "inputs": [],
      "name": "owner",
      "outputs": [
        {
          "internalType": "address",
          "name": "",
          "type": "address"
        }
      ],
      "stateMutability": "view",
      "type": "function",
      "constant": true
    },
    {
      "inputs": [
        {
          "internalType": "uint256",
          "name": "tokenId",
          "type": "uint256"
        }
      ],
      "name": "ownerOf",
      "outputs": [
        {
          "internalType": "address",
          "name": "",
          "type": "address"
        }
      ],
      "stateMutability": "view",
      "type": "function",
      "constant": true
    },
    {
      "inputs": [],
      "name": "photocopyCost",
      "outputs": [
        {
          "internalType": "uint256",
          "name": "",
          "type": "uint256"
        }
      ],
      "stateMutability": "view",
      "type": "function",
      "constant": true
    },
    {
      "inputs": [],
      "name": "renounceOwnership",
      "outputs": [],
      "stateMutability": "nonpayable",
      "type": "function"
    },
    {
      "inputs": [
        {
          "internalType": "address",
          "name": "from",
          "type": "address"
        },
        {
          "internalType": "address",
          "name": "to",
          "type": "address"
        },
        {
          "internalType": "uint256",
          "name": "tokenId",
          "type": "uint256"
        }
      ],
      "name": "safeTransferFrom",
      "outputs": [],
      "stateMutability": "nonpayable",
      "type": "function"
    },
    {
      "inputs": [
        {
          "internalType": "address",
          "name": "from",
          "type": "address"
        },
        {
          "internalType": "address",
          "name": "to",
          "type": "address"
        },
        {
          "internalType": "uint256",
          "name": "tokenId",
          "type": "uint256"
        },
        {
          "internalType": "bytes",
          "name": "_data",
          "type": "bytes"
        }
      ],
      "name": "safeTransferFrom",
      "outputs": [],
      "stateMutability": "nonpayable",
      "type": "function"
    },
    {
      "inputs": [
        {
          "internalType": "address",
          "name": "operator",
          "type": "address"
        },
        {
          "internalType": "bool",
          "name": "approved",
          "type": "bool"
        }
      ],
      "name": "setApprovalForAll",
      "outputs": [],
      "stateMutability": "nonpayable",
      "type": "function"
    },
    {
      "inputs": [
        {
          "internalType": "bytes4",
          "name": "interfaceId",
          "type": "bytes4"
        }
      ],
      "name": "supportsInterface",
      "outputs": [
        {
          "internalType": "bool",
          "name": "",
          "type": "bool"
        }
      ],
      "stateMutability": "view",
      "type": "function",
      "constant": true
    },
    {
      "inputs": [],
      "name": "symbol",
      "outputs": [
        {
          "internalType": "string",
          "name": "",
          "type": "string"
        }
      ],
      "stateMutability": "view",
      "type": "function",
      "constant": true
    },
    {
      "inputs": [
        {
          "internalType": "address",
          "name": "from",
          "type": "address"
        },
        {
          "internalType": "address",
          "name": "to",
          "type": "address"
        },
        {
          "internalType": "uint256",
          "name": "tokenId",
          "type": "uint256"
        }
      ],
      "name": "transferFrom",
      "outputs": [],
      "stateMutability": "nonpayable",
      "type": "function"
    },
    {
      "inputs": [
        {
          "internalType": "address",
          "name": "newOwner",
          "type": "address"
        }
      ],
      "name": "transferOwnership",
      "outputs": [],
      "stateMutability": "nonpayable",
      "type": "function"
    },
    {
      "inputs": [
        {
          "internalType": "address",
          "name": "_owner",
          "type": "address"
        },
        {
          "internalType": "address",
          "name": "_operator",
          "type": "address"
        }
      ],
      "name": "isApprovedForAll",
      "outputs": [
        {
          "internalType": "bool",
          "name": "isOperator",
          "type": "bool"
        }
      ],
      "stateMutability": "view",
      "type": "function",
      "constant": true
    },
    {
      "inputs": [
        {
          "internalType": "string",
          "name": "a",
          "type": "string"
        },
        {
          "internalType": "string",
          "name": "b",
          "type": "string"
        }
      ],
      "name": "compareStrings",
      "outputs": [
        {
          "internalType": "bool",
          "name": "",
          "type": "bool"
        }
      ],
      "stateMutability": "pure",
      "type": "function",
      "constant": true
    },
    {
      "inputs": [
        {
          "internalType": "string",
          "name": "originalURI",
          "type": "string"
        }
      ],
      "name": "photocopyNft",
      "outputs": [
        {
          "internalType": "uint256",
          "name": "",
          "type": "uint256"
        }
      ],
      "stateMutability": "payable",
      "type": "function",
      "payable": true
    },
    {
      "inputs": [],
      "name": "claimEarnings",
      "outputs": [],
      "stateMutability": "nonpayable",
      "type": "function"
    },
    {
      "inputs": [
        {
          "internalType": "uint256",
          "name": "newPrice",
          "type": "uint256"
        }
      ],
      "name": "setCopyPrice",
      "outputs": [],
      "stateMutability": "nonpayable",
      "type": "function"
    },
    {
      "inputs": [
        {
          "internalType": "uint256",
          "name": "tokenId",
          "type": "uint256"
        }
      ],
      "name": "tokenURI",
      "outputs": [
        {
          "internalType": "string",
          "name": "",
          "type": "string"
        }
      ],
      "stateMutability": "view",
      "type": "function",
      "constant": true
    }
  ],
  "bytecode": "0x60806040526000600660006101000a81548160ff0219169083151502179055506000600c553480156200003157600080fd5b506040518060400160405280600e81526020017f4e465450686f746f636f706965720000000000000000000000000000000000008152506040518060400160405280600481526020017f4e465450000000000000000000000000000000000000000000000000000000008152508160009080519060200190620000b692919062000411565b508060019080519060200190620000cf92919062000411565b505050620000f2620000e66200013e60201b60201c565b6200015a60201b60201c565b620001386040518060400160405280600e81526020017f4e465450686f746f636f706965720000000000000000000000000000000000008152506200022060201b60201c565b62000666565b600062000155620002a260201b620014eb1760201c565b905090565b6000600960009054906101000a900473ffffffffffffffffffffffffffffffffffffffff16905081600960006101000a81548173ffffffffffffffffffffffffffffffffffffffff021916908373ffffffffffffffffffffffffffffffffffffffff1602179055508173ffffffffffffffffffffffffffffffffffffffff168173ffffffffffffffffffffffffffffffffffffffff167f8be0079c531659141344cd1fd0a4f28419497f9722a3daafe3b4186f6b6457e060405160405180910390a35050565b600660009054906101000a900460ff161562000273576040517f08c379a00000000000000000000000000000000000000000000000000000000081526004016200026a9062000567565b60405180910390fd5b62000284816200035560201b60201c565b6001600660006101000a81548160ff02191690831515021790555050565b60003073ffffffffffffffffffffffffffffffffffffffff163373ffffffffffffffffffffffffffffffffffffffff1614156200034e57600080368080601f016020809104026020016040519081016040528093929190818152602001838380828437600081840152601f19601f820116905080830192505050505050509050600080369050905073ffffffffffffffffffffffffffffffffffffffff81830151169250505062000352565b3390505b90565b6040518060800160405280604f8152602001620042a4604f91398051906020012081805190602001206040518060400160405280600181526020017f31000000000000000000000000000000000000000000000000000000000000008152508051906020012030620003cc6200040460201b60201c565b60001b604051602001620003e59594939291906200050a565b6040516020818303038152906040528051906020012060078190555050565b6000804690508091505090565b8280546200041f90620005d8565b90600052602060002090601f0160209004810192826200044357600085556200048f565b82601f106200045e57805160ff19168380011785556200048f565b828001600101855582156200048f579182015b828111156200048e57825182559160200191906001019062000471565b5b5090506200049e9190620004a2565b5090565b5b80821115620004bd576000816000905550600101620004a3565b5090565b620004cc816200059a565b82525050565b620004dd81620005ae565b82525050565b6000620004f2600e8362000589565b9150620004ff826200063d565b602082019050919050565b600060a082019050620005216000830188620004d2565b620005306020830187620004d2565b6200053f6040830186620004d2565b6200054e6060830185620004c1565b6200055d6080830184620004d2565b9695505050505050565b600060208201905081810360008301526200058281620004e3565b9050919050565b600082825260208201905092915050565b6000620005a782620005b8565b9050919050565b6000819050919050565b600073ffffffffffffffffffffffffffffffffffffffff82169050919050565b60006002820490506001821680620005f157607f821691505b602082108114156200060857620006076200060e565b5b50919050565b7f4e487b7100000000000000000000000000000000000000000000000000000000600052602260045260246000fd5b7f616c726561647920696e69746564000000000000000000000000000000000000600082015250565b613c2e80620006766000396000f3fe6080604052600436106101815760003560e01c806370a08231116100d1578063b88d4fde1161008a578063d9ceab1311610064578063d9ceab13146105a2578063e985e9c5146105b9578063f24bf33a146105f6578063f2fde38b1461061f57610181565b8063b88d4fde146104ff578063bed34bba14610528578063c87b56dd1461056557610181565b806370a08231146103fc578063715018a6146104395780638c792ba2146104505780638da5cb5b1461048057806395d89b41146104ab578063a22cb465146104d657610181565b806320379ee51161013e5780633408e470116101185780633408e4701461034057806342842e0e1461036b5780635910f7e4146103945780636352211e146103bf57610181565b806320379ee5146102af57806323b872dd146102da5780632d0335ab1461030357610181565b806301ffc9a71461018657806306fdde03146101c3578063081812fc146101ee578063095ea7b31461022b5780630c53c51c146102545780630f7e597014610284575b600080fd5b34801561019257600080fd5b506101ad60048036038101906101a891906127c3565b610648565b6040516101ba9190612e58565b60405180910390f35b3480156101cf57600080fd5b506101d861072a565b6040516101e59190612f3a565b60405180910390f35b3480156101fa57600080fd5b50610215600480360381019061021091906128c2565b6107bc565b6040516102229190612db3565b60405180910390f35b34801561023757600080fd5b50610252600480360381019061024d9190612787565b610841565b005b61026e600480360381019061026991906126f8565b610959565b60405161027b9190612f18565b60405180910390f35b34801561029057600080fd5b50610299610bc4565b6040516102a69190612f3a565b60405180910390f35b3480156102bb57600080fd5b506102c4610bfd565b6040516102d19190612e73565b60405180910390f35b3480156102e657600080fd5b5061030160048036038101906102fc91906125f2565b610c07565b005b34801561030f57600080fd5b5061032a6004803603810190610325919061258d565b610c67565b60405161033791906131dc565b60405180910390f35b34801561034c57600080fd5b50610355610cb0565b60405161036291906131dc565b60405180910390f35b34801561037757600080fd5b50610392600480360381019061038d91906125f2565b610cbd565b005b3480156103a057600080fd5b506103a9610cdd565b6040516103b691906131dc565b60405180910390f35b3480156103cb57600080fd5b506103e660048036038101906103e191906128c2565b610ce3565b6040516103f39190612db3565b60405180910390f35b34801561040857600080fd5b50610423600480360381019061041e919061258d565b610d95565b60405161043091906131dc565b60405180910390f35b34801561044557600080fd5b5061044e610e4d565b005b61046a60048036038101906104659190612815565b610ed5565b60405161047791906131dc565b60405180910390f35b34801561048c57600080fd5b50610495610fbc565b6040516104a29190612db3565b60405180910390f35b3480156104b757600080fd5b506104c0610fe6565b6040516104cd9190612f3a565b60405180910390f35b3480156104e257600080fd5b506104fd60048036038101906104f891906126bc565b611078565b005b34801561050b57600080fd5b5061052660048036038101906105219190612641565b61108e565b005b34801561053457600080fd5b5061054f600480360381019061054a9190612856565b6110f0565b60405161055c9190612e58565b60405180910390f35b34801561057157600080fd5b5061058c600480360381019061058791906128c2565b611149565b6040516105999190612f3a565b60405180910390f35b3480156105ae57600080fd5b506105b7611236565b005b3480156105c557600080fd5b506105e060048036038101906105db91906125b6565b611307565b6040516105ed9190612e58565b60405180910390f35b34801561060257600080fd5b5061061d600480360381019061061891906128c2565b61136d565b005b34801561062b57600080fd5b506106466004803603810190610641919061258d565b6113f3565b005b60007f80ac58cd000000000000000000000000000000000000000000000000000000007bffffffffffffffffffffffffffffffffffffffffffffffffffffffff1916827bffffffffffffffffffffffffffffffffffffffffffffffffffffffff1916148061071357507f5b5e139f000000000000000000000000000000000000000000000000000000007bffffffffffffffffffffffffffffffffffffffffffffffffffffffff1916827bffffffffffffffffffffffffffffffffffffffffffffffffffffffff1916145b8061072357506107228261159c565b5b9050919050565b60606000805461073990613435565b80601f016020809104026020016040519081016040528092919081815260200182805461076590613435565b80156107b25780601f10610787576101008083540402835291602001916107b2565b820191906000526020600020905b81548152906001019060200180831161079557829003601f168201915b5050505050905090565b60006107c782611606565b610806576040517f08c379a00000000000000000000000000000000000000000000000000000000081526004016107fd906130fc565b60405180910390fd5b6004600083815260200190815260200160002060009054906101000a900473ffffffffffffffffffffffffffffffffffffffff169050919050565b600061084c82610ce3565b90508073ffffffffffffffffffffffffffffffffffffffff168373ffffffffffffffffffffffffffffffffffffffff1614156108bd576040517f08c379a00000000000000000000000000000000000000000000000000000000081526004016108b49061317c565b60405180910390fd5b8073ffffffffffffffffffffffffffffffffffffffff166108dc611672565b73ffffffffffffffffffffffffffffffffffffffff16148061090b575061090a81610905611672565b611307565b5b61094a576040517f08c379a00000000000000000000000000000000000000000000000000000000081526004016109419061307c565b60405180910390fd5b6109548383611681565b505050565b606060006040518060600160405280600860008a73ffffffffffffffffffffffffffffffffffffffff1673ffffffffffffffffffffffffffffffffffffffff1681526020019081526020016000205481526020018873ffffffffffffffffffffffffffffffffffffffff1681526020018781525090506109dc878287878761173a565b610a1b576040517f08c379a0000000000000000000000000000000000000000000000000000000008152600401610a129061313c565b60405180910390fd5b6001600860008973ffffffffffffffffffffffffffffffffffffffff1673ffffffffffffffffffffffffffffffffffffffff16815260200190815260200160002054610a6791906132cc565b600860008973ffffffffffffffffffffffffffffffffffffffff1673ffffffffffffffffffffffffffffffffffffffff168152602001908152602001600020819055507f5845892132946850460bff5a0083f71031bc5bf9aadcd40f1de79423eac9b10b873388604051610add93929190612dce565b60405180910390a16000803073ffffffffffffffffffffffffffffffffffffffff16888a604051602001610b12929190612d3d565b604051602081830303815290604052604051610b2e9190612d26565b6000604051808303816000865af19150503d8060008114610b6b576040519150601f19603f3d011682016040523d82523d6000602084013e610b70565b606091505b509150915081610bb5576040517f08c379a0000000000000000000000000000000000000000000000000000000008152600401610bac90612f9c565b60405180910390fd5b80935050505095945050505050565b6040518060400160405280600181526020017f310000000000000000000000000000000000000000000000000000000000000081525081565b6000600754905090565b610c18610c12611672565b82611843565b610c57576040517f08c379a0000000000000000000000000000000000000000000000000000000008152600401610c4e9061319c565b60405180910390fd5b610c62838383611921565b505050565b6000600860008373ffffffffffffffffffffffffffffffffffffffff1673ffffffffffffffffffffffffffffffffffffffff168152602001908152602001600020549050919050565b6000804690508091505090565b610cd88383836040518060200160405280600081525061108e565b505050565b600c5481565b6000806002600084815260200190815260200160002060009054906101000a900473ffffffffffffffffffffffffffffffffffffffff169050600073ffffffffffffffffffffffffffffffffffffffff168173ffffffffffffffffffffffffffffffffffffffff161415610d8c576040517f08c379a0000000000000000000000000000000000000000000000000000000008152600401610d83906130bc565b60405180910390fd5b80915050919050565b60008073ffffffffffffffffffffffffffffffffffffffff168273ffffffffffffffffffffffffffffffffffffffff161415610e06576040517f08c379a0000000000000000000000000000000000000000000000000000000008152600401610dfd9061309c565b60405180910390fd5b600360008373ffffffffffffffffffffffffffffffffffffffff1673ffffffffffffffffffffffffffffffffffffffff168152602001908152602001600020549050919050565b610e55611672565b73ffffffffffffffffffffffffffffffffffffffff16610e73610fbc565b73ffffffffffffffffffffffffffffffffffffffff1614610ec9576040517f08c379a0000000000000000000000000000000000000000000000000000000008152600401610ec09061311c565b60405180910390fd5b610ed36000611b88565b565b6000600c54341015610ee657600080fd5b6000600190505b610ef7600a611c4e565b8111610f68576000610f0882611149565b9050610f1484826110f0565b15610f54576040517f08c379a0000000000000000000000000000000000000000000000000000000008152600401610f4b906131bc565b60405180910390fd5b508080610f6090613498565b915050610eed565b50610f73600a611c5c565b6000610f7f600a611c4e565b9050610f8b3382611c72565b82600b60008381526020019081526020016000209080519060200190610fb2929190612387565b5080915050919050565b6000600960009054906101000a900473ffffffffffffffffffffffffffffffffffffffff16905090565b606060018054610ff590613435565b80601f016020809104026020016040519081016040528092919081815260200182805461102190613435565b801561106e5780601f106110435761010080835404028352916020019161106e565b820191906000526020600020905b81548152906001019060200180831161105157829003601f168201915b5050505050905090565b61108a611083611672565b8383611c90565b5050565b61109f611099611672565b83611843565b6110de576040517f08c379a00000000000000000000000000000000000000000000000000000000081526004016110d59061319c565b60405180910390fd5b6110ea84848484611dfd565b50505050565b6000816040516020016111039190612d65565b604051602081830303815290604052805190602001208360405160200161112a9190612d65565b6040516020818303038152906040528051906020012014905092915050565b606061115482611606565b611193576040517f08c379a000000000000000000000000000000000000000000000000000000000815260040161118a9061315c565b60405180910390fd5b600b600083815260200190815260200160002080546111b190613435565b80601f01602080910402602001604051908101604052809291908181526020018280546111dd90613435565b801561122a5780601f106111ff5761010080835404028352916020019161122a565b820191906000526020600020905b81548152906001019060200180831161120d57829003601f168201915b50505050509050919050565b61123e611672565b73ffffffffffffffffffffffffffffffffffffffff1661125c610fbc565b73ffffffffffffffffffffffffffffffffffffffff16146112b2576040517f08c379a00000000000000000000000000000000000000000000000000000000081526004016112a99061311c565b60405180910390fd5b600047905060003390508073ffffffffffffffffffffffffffffffffffffffff166108fc839081150290604051600060405180830381858888f19350505050158015611302573d6000803e3d6000fd5b505050565b60007358807bad0b376efc12f5ad86aac70e78ed67deae73ffffffffffffffffffffffffffffffffffffffff168273ffffffffffffffffffffffffffffffffffffffff16141561135a5760019050611367565b6113648383611e59565b90505b92915050565b611375611672565b73ffffffffffffffffffffffffffffffffffffffff16611393610fbc565b73ffffffffffffffffffffffffffffffffffffffff16146113e9576040517f08c379a00000000000000000000000000000000000000000000000000000000081526004016113e09061311c565b60405180910390fd5b80600c8190555050565b6113fb611672565b73ffffffffffffffffffffffffffffffffffffffff16611419610fbc565b73ffffffffffffffffffffffffffffffffffffffff161461146f576040517f08c379a00000000000000000000000000000000000000000000000000000000081526004016114669061311c565b60405180910390fd5b600073ffffffffffffffffffffffffffffffffffffffff168173ffffffffffffffffffffffffffffffffffffffff1614156114df576040517f08c379a00000000000000000000000000000000000000000000000000000000081526004016114d690612f7c565b60405180910390fd5b6114e881611b88565b50565b60003073ffffffffffffffffffffffffffffffffffffffff163373ffffffffffffffffffffffffffffffffffffffff16141561159557600080368080601f016020809104026020016040519081016040528093929190818152602001838380828437600081840152601f19601f820116905080830192505050505050509050600080369050905073ffffffffffffffffffffffffffffffffffffffff818301511692505050611599565b3390505b90565b60007f01ffc9a7000000000000000000000000000000000000000000000000000000007bffffffffffffffffffffffffffffffffffffffffffffffffffffffff1916827bffffffffffffffffffffffffffffffffffffffffffffffffffffffff1916149050919050565b60008073ffffffffffffffffffffffffffffffffffffffff166002600084815260200190815260200160002060009054906101000a900473ffffffffffffffffffffffffffffffffffffffff1673ffffffffffffffffffffffffffffffffffffffff1614159050919050565b600061167c6114eb565b905090565b816004600083815260200190815260200160002060006101000a81548173ffffffffffffffffffffffffffffffffffffffff021916908373ffffffffffffffffffffffffffffffffffffffff160217905550808273ffffffffffffffffffffffffffffffffffffffff166116f483610ce3565b73ffffffffffffffffffffffffffffffffffffffff167f8c5be1e5ebec7d5bd14f71427d1e84f3dd0314c0f7b2291e5b200ac8c7c3b92560405160405180910390a45050565b60008073ffffffffffffffffffffffffffffffffffffffff168673ffffffffffffffffffffffffffffffffffffffff1614156117ab576040517f08c379a00000000000000000000000000000000000000000000000000000000081526004016117a29061305c565b60405180910390fd5b60016117be6117b987611eed565b611f55565b838686604051600081526020016040526040516117de9493929190612ed3565b6020604051602081039080840390855afa158015611800573d6000803e3d6000fd5b5050506020604051035173ffffffffffffffffffffffffffffffffffffffff168673ffffffffffffffffffffffffffffffffffffffff1614905095945050505050565b600061184e82611606565b61188d576040517f08c379a00000000000000000000000000000000000000000000000000000000081526004016118849061303c565b60405180910390fd5b600061189883610ce3565b90508073ffffffffffffffffffffffffffffffffffffffff168473ffffffffffffffffffffffffffffffffffffffff16148061190757508373ffffffffffffffffffffffffffffffffffffffff166118ef846107bc565b73ffffffffffffffffffffffffffffffffffffffff16145b8061191857506119178185611307565b5b91505092915050565b8273ffffffffffffffffffffffffffffffffffffffff1661194182610ce3565b73ffffffffffffffffffffffffffffffffffffffff1614611997576040517f08c379a000000000000000000000000000000000000000000000000000000000815260040161198e90612fbc565b60405180910390fd5b600073ffffffffffffffffffffffffffffffffffffffff168273ffffffffffffffffffffffffffffffffffffffff161415611a07576040517f08c379a00000000000000000000000000000000000000000000000000000000081526004016119fe90612ffc565b60405180910390fd5b611a12838383611f8e565b611a1d600082611681565b6001600360008573ffffffffffffffffffffffffffffffffffffffff1673ffffffffffffffffffffffffffffffffffffffff1681526020019081526020016000206000828254611a6d9190613322565b925050819055506001600360008473ffffffffffffffffffffffffffffffffffffffff1673ffffffffffffffffffffffffffffffffffffffff1681526020019081526020016000206000828254611ac491906132cc565b92505081905550816002600083815260200190815260200160002060006101000a81548173ffffffffffffffffffffffffffffffffffffffff021916908373ffffffffffffffffffffffffffffffffffffffff160217905550808273ffffffffffffffffffffffffffffffffffffffff168473ffffffffffffffffffffffffffffffffffffffff167fddf252ad1be2c89b69c2b068fc378daa952ba7f163c4a11628f55a4df523b3ef60405160405180910390a4611b83838383611f93565b505050565b6000600960009054906101000a900473ffffffffffffffffffffffffffffffffffffffff16905081600960006101000a81548173ffffffffffffffffffffffffffffffffffffffff021916908373ffffffffffffffffffffffffffffffffffffffff1602179055508173ffffffffffffffffffffffffffffffffffffffff168173ffffffffffffffffffffffffffffffffffffffff167f8be0079c531659141344cd1fd0a4f28419497f9722a3daafe3b4186f6b6457e060405160405180910390a35050565b600081600001549050919050565b6001816000016000828254019250508190555050565b611c8c828260405180602001604052806000815250611f98565b5050565b8173ffffffffffffffffffffffffffffffffffffffff168373ffffffffffffffffffffffffffffffffffffffff161415611cff576040517f08c379a0000000000000000000000000000000000000000000000000000000008152600401611cf69061301c565b60405180910390fd5b80600560008573ffffffffffffffffffffffffffffffffffffffff1673ffffffffffffffffffffffffffffffffffffffff16815260200190815260200160002060008473ffffffffffffffffffffffffffffffffffffffff1673ffffffffffffffffffffffffffffffffffffffff16815260200190815260200160002060006101000a81548160ff0219169083151502179055508173ffffffffffffffffffffffffffffffffffffffff168373ffffffffffffffffffffffffffffffffffffffff167f17307eab39ab6107e8899845ad3d59bd9653f200f220920489ca2b5937696c3183604051611df09190612e58565b60405180910390a3505050565b611e08848484611921565b611e1484848484611ff3565b611e53576040517f08c379a0000000000000000000000000000000000000000000000000000000008152600401611e4a90612f5c565b60405180910390fd5b50505050565b6000600560008473ffffffffffffffffffffffffffffffffffffffff1673ffffffffffffffffffffffffffffffffffffffff16815260200190815260200160002060008373ffffffffffffffffffffffffffffffffffffffff1673ffffffffffffffffffffffffffffffffffffffff16815260200190815260200160002060009054906101000a900460ff16905092915050565b6000604051806080016040528060438152602001613bb6604391398051906020012082600001518360200151846040015180519060200120604051602001611f389493929190612e8e565b604051602081830303815290604052805190602001209050919050565b6000611f5f610bfd565b82604051602001611f71929190612d7c565b604051602081830303815290604052805190602001209050919050565b505050565b505050565b611fa2838361218a565b611faf6000848484611ff3565b611fee576040517f08c379a0000000000000000000000000000000000000000000000000000000008152600401611fe590612f5c565b60405180910390fd5b505050565b60006120148473ffffffffffffffffffffffffffffffffffffffff16612364565b1561217d578373ffffffffffffffffffffffffffffffffffffffff1663150b7a0261203d611672565b8786866040518563ffffffff1660e01b815260040161205f9493929190612e0c565b602060405180830381600087803b15801561207957600080fd5b505af19250505080156120aa57506040513d601f19601f820116820180604052508101906120a791906127ec565b60015b61212d573d80600081146120da576040519150601f19603f3d011682016040523d82523d6000602084013e6120df565b606091505b50600081511415612125576040517f08c379a000000000000000000000000000000000000000000000000000000000815260040161211c90612f5c565b60405180910390fd5b805181602001fd5b63150b7a0260e01b7bffffffffffffffffffffffffffffffffffffffffffffffffffffffff1916817bffffffffffffffffffffffffffffffffffffffffffffffffffffffff191614915050612182565b600190505b949350505050565b600073ffffffffffffffffffffffffffffffffffffffff168273ffffffffffffffffffffffffffffffffffffffff1614156121fa576040517f08c379a00000000000000000000000000000000000000000000000000000000081526004016121f1906130dc565b60405180910390fd5b61220381611606565b15612243576040517f08c379a000000000000000000000000000000000000000000000000000000000815260040161223a90612fdc565b60405180910390fd5b61224f60008383611f8e565b6001600360008473ffffffffffffffffffffffffffffffffffffffff1673ffffffffffffffffffffffffffffffffffffffff168152602001908152602001600020600082825461229f91906132cc565b92505081905550816002600083815260200190815260200160002060006101000a81548173ffffffffffffffffffffffffffffffffffffffff021916908373ffffffffffffffffffffffffffffffffffffffff160217905550808273ffffffffffffffffffffffffffffffffffffffff16600073ffffffffffffffffffffffffffffffffffffffff167fddf252ad1be2c89b69c2b068fc378daa952ba7f163c4a11628f55a4df523b3ef60405160405180910390a461236060008383611f93565b5050565b6000808273ffffffffffffffffffffffffffffffffffffffff163b119050919050565b82805461239390613435565b90600052602060002090601f0160209004810192826123b557600085556123fc565b82601f106123ce57805160ff19168380011785556123fc565b828001600101855582156123fc579182015b828111156123fb5782518255916020019190600101906123e0565b5b509050612409919061240d565b5090565b5b8082111561242657600081600090555060010161240e565b5090565b600061243d6124388461321c565b6131f7565b90508281526020810184848401111561245557600080fd5b6124608482856133f3565b509392505050565b600061247b6124768461324d565b6131f7565b90508281526020810184848401111561249357600080fd5b61249e8482856133f3565b509392505050565b6000813590506124b581613b2b565b92915050565b6000813590506124ca81613b42565b92915050565b6000813590506124df81613b59565b92915050565b6000813590506124f481613b70565b92915050565b60008151905061250981613b70565b92915050565b600082601f83011261252057600080fd5b813561253084826020860161242a565b91505092915050565b600082601f83011261254a57600080fd5b813561255a848260208601612468565b91505092915050565b60008135905061257281613b87565b92915050565b60008135905061258781613b9e565b92915050565b60006020828403121561259f57600080fd5b60006125ad848285016124a6565b91505092915050565b600080604083850312156125c957600080fd5b60006125d7858286016124a6565b92505060206125e8858286016124a6565b9150509250929050565b60008060006060848603121561260757600080fd5b6000612615868287016124a6565b9350506020612626868287016124a6565b925050604061263786828701612563565b9150509250925092565b6000806000806080858703121561265757600080fd5b6000612665878288016124a6565b9450506020612676878288016124a6565b935050604061268787828801612563565b925050606085013567ffffffffffffffff8111156126a457600080fd5b6126b08782880161250f565b91505092959194509250565b600080604083850312156126cf57600080fd5b60006126dd858286016124a6565b92505060206126ee858286016124bb565b9150509250929050565b600080600080600060a0868803121561271057600080fd5b600061271e888289016124a6565b955050602086013567ffffffffffffffff81111561273b57600080fd5b6127478882890161250f565b9450506040612758888289016124d0565b9350506060612769888289016124d0565b925050608061277a88828901612578565b9150509295509295909350565b6000806040838503121561279a57600080fd5b60006127a8858286016124a6565b92505060206127b985828601612563565b9150509250929050565b6000602082840312156127d557600080fd5b60006127e3848285016124e5565b91505092915050565b6000602082840312156127fe57600080fd5b600061280c848285016124fa565b91505092915050565b60006020828403121561282757600080fd5b600082013567ffffffffffffffff81111561284157600080fd5b61284d84828501612539565b91505092915050565b6000806040838503121561286957600080fd5b600083013567ffffffffffffffff81111561288357600080fd5b61288f85828601612539565b925050602083013567ffffffffffffffff8111156128ac57600080fd5b6128b885828601612539565b9150509250929050565b6000602082840312156128d457600080fd5b60006128e284828501612563565b91505092915050565b6128f481613368565b82525050565b61290381613356565b82525050565b61291a61291582613356565b6134e1565b82525050565b6129298161337a565b82525050565b61293881613386565b82525050565b61294f61294a82613386565b6134f3565b82525050565b60006129608261327e565b61296a8185613294565b935061297a818560208601613402565b6129838161359c565b840191505092915050565b60006129998261327e565b6129a381856132a5565b93506129b3818560208601613402565b80840191505092915050565b60006129ca82613289565b6129d481856132b0565b93506129e4818560208601613402565b6129ed8161359c565b840191505092915050565b6000612a0382613289565b612a0d81856132c1565b9350612a1d818560208601613402565b80840191505092915050565b6000612a366032836132b0565b9150612a41826135ba565b604082019050919050565b6000612a596026836132b0565b9150612a6482613609565b604082019050919050565b6000612a7c601c836132b0565b9150612a8782613658565b602082019050919050565b6000612a9f6025836132b0565b9150612aaa82613681565b604082019050919050565b6000612ac2601c836132b0565b9150612acd826136d0565b602082019050919050565b6000612ae56002836132c1565b9150612af0826136f9565b600282019050919050565b6000612b086024836132b0565b9150612b1382613722565b604082019050919050565b6000612b2b6019836132b0565b9150612b3682613771565b602082019050919050565b6000612b4e602c836132b0565b9150612b598261379a565b604082019050919050565b6000612b716025836132b0565b9150612b7c826137e9565b604082019050919050565b6000612b946038836132b0565b9150612b9f82613838565b604082019050919050565b6000612bb7602a836132b0565b9150612bc282613887565b604082019050919050565b6000612bda6029836132b0565b9150612be5826138d6565b604082019050919050565b6000612bfd6020836132b0565b9150612c0882613925565b602082019050919050565b6000612c20602c836132b0565b9150612c2b8261394e565b604082019050919050565b6000612c436020836132b0565b9150612c4e8261399d565b602082019050919050565b6000612c666021836132b0565b9150612c71826139c6565b604082019050919050565b6000612c89602f836132b0565b9150612c9482613a15565b604082019050919050565b6000612cac6021836132b0565b9150612cb782613a64565b604082019050919050565b6000612ccf6031836132b0565b9150612cda82613ab3565b604082019050919050565b6000612cf26013836132b0565b9150612cfd82613b02565b602082019050919050565b612d11816133dc565b82525050565b612d20816133e6565b82525050565b6000612d32828461298e565b915081905092915050565b6000612d49828561298e565b9150612d558284612909565b6014820191508190509392505050565b6000612d7182846129f8565b915081905092915050565b6000612d8782612ad8565b9150612d93828561293e565b602082019150612da3828461293e565b6020820191508190509392505050565b6000602082019050612dc860008301846128fa565b92915050565b6000606082019050612de360008301866128fa565b612df060208301856128eb565b8181036040830152612e028184612955565b9050949350505050565b6000608082019050612e2160008301876128fa565b612e2e60208301866128fa565b612e3b6040830185612d08565b8181036060830152612e4d8184612955565b905095945050505050565b6000602082019050612e6d6000830184612920565b92915050565b6000602082019050612e88600083018461292f565b92915050565b6000608082019050612ea3600083018761292f565b612eb06020830186612d08565b612ebd60408301856128fa565b612eca606083018461292f565b95945050505050565b6000608082019050612ee8600083018761292f565b612ef56020830186612d17565b612f02604083018561292f565b612f0f606083018461292f565b95945050505050565b60006020820190508181036000830152612f328184612955565b905092915050565b60006020820190508181036000830152612f5481846129bf565b905092915050565b60006020820190508181036000830152612f7581612a29565b9050919050565b60006020820190508181036000830152612f9581612a4c565b9050919050565b60006020820190508181036000830152612fb581612a6f565b9050919050565b60006020820190508181036000830152612fd581612a92565b9050919050565b60006020820190508181036000830152612ff581612ab5565b9050919050565b6000602082019050818103600083015261301581612afb565b9050919050565b6000602082019050818103600083015261303581612b1e565b9050919050565b6000602082019050818103600083015261305581612b41565b9050919050565b6000602082019050818103600083015261307581612b64565b9050919050565b6000602082019050818103600083015261309581612b87565b9050919050565b600060208201905081810360008301526130b581612baa565b9050919050565b600060208201905081810360008301526130d581612bcd565b9050919050565b600060208201905081810360008301526130f581612bf0565b9050919050565b6000602082019050818103600083015261311581612c13565b9050919050565b6000602082019050818103600083015261313581612c36565b9050919050565b6000602082019050818103600083015261315581612c59565b9050919050565b6000602082019050818103600083015261317581612c7c565b9050919050565b6000602082019050818103600083015261319581612c9f565b9050919050565b600060208201905081810360008301526131b581612cc2565b9050919050565b600060208201905081810360008301526131d581612ce5565b9050919050565b60006020820190506131f16000830184612d08565b92915050565b6000613201613212565b905061320d8282613467565b919050565b6000604051905090565b600067ffffffffffffffff8211156132375761323661356d565b5b6132408261359c565b9050602081019050919050565b600067ffffffffffffffff8211156132685761326761356d565b5b6132718261359c565b9050602081019050919050565b600081519050919050565b600081519050919050565b600082825260208201905092915050565b600081905092915050565b600082825260208201905092915050565b600081905092915050565b60006132d7826133dc565b91506132e2836133dc565b9250827fffffffffffffffffffffffffffffffffffffffffffffffffffffffffffffffff038211156133175761331661350f565b5b828201905092915050565b600061332d826133dc565b9150613338836133dc565b92508282101561334b5761334a61350f565b5b828203905092915050565b6000613361826133bc565b9050919050565b6000613373826133bc565b9050919050565b60008115159050919050565b6000819050919050565b60007fffffffff0000000000000000000000000000000000000000000000000000000082169050919050565b600073ffffffffffffffffffffffffffffffffffffffff82169050919050565b6000819050919050565b600060ff82169050919050565b82818337600083830152505050565b60005b83811015613420578082015181840152602081019050613405565b8381111561342f576000848401525b50505050565b6000600282049050600182168061344d57607f821691505b602082108114156134615761346061353e565b5b50919050565b6134708261359c565b810181811067ffffffffffffffff8211171561348f5761348e61356d565b5b80604052505050565b60006134a3826133dc565b91507fffffffffffffffffffffffffffffffffffffffffffffffffffffffffffffffff8214156134d6576134d561350f565b5b600182019050919050565b60006134ec826134fd565b9050919050565b6000819050919050565b6000613508826135ad565b9050919050565b7f4e487b7100000000000000000000000000000000000000000000000000000000600052601160045260246000fd5b7f4e487b7100000000000000000000000000000000000000000000000000000000600052602260045260246000fd5b7f4e487b7100000000000000000000000000000000000000000000000000000000600052604160045260246000fd5b6000601f19601f8301169050919050565b60008160601b9050919050565b7f4552433732313a207472616e7366657220746f206e6f6e20455243373231526560008201527f63656976657220696d706c656d656e7465720000000000000000000000000000602082015250565b7f4f776e61626c653a206e6577206f776e657220697320746865207a65726f206160008201527f6464726573730000000000000000000000000000000000000000000000000000602082015250565b7f46756e6374696f6e2063616c6c206e6f74207375636365737366756c00000000600082015250565b7f4552433732313a207472616e736665722066726f6d20696e636f72726563742060008201527f6f776e6572000000000000000000000000000000000000000000000000000000602082015250565b7f4552433732313a20746f6b656e20616c7265616479206d696e74656400000000600082015250565b7f1901000000000000000000000000000000000000000000000000000000000000600082015250565b7f4552433732313a207472616e7366657220746f20746865207a65726f2061646460008201527f7265737300000000000000000000000000000000000000000000000000000000602082015250565b7f4552433732313a20617070726f766520746f2063616c6c657200000000000000600082015250565b7f4552433732313a206f70657261746f7220717565727920666f72206e6f6e657860008201527f697374656e7420746f6b656e0000000000000000000000000000000000000000602082015250565b7f4e61746976654d6574615472616e73616374696f6e3a20494e56414c49445f5360008201527f49474e4552000000000000000000000000000000000000000000000000000000602082015250565b7f4552433732313a20617070726f76652063616c6c6572206973206e6f74206f7760008201527f6e6572206e6f7220617070726f76656420666f7220616c6c0000000000000000602082015250565b7f4552433732313a2062616c616e636520717565727920666f7220746865207a6560008201527f726f206164647265737300000000000000000000000000000000000000000000602082015250565b7f4552433732313a206f776e657220717565727920666f72206e6f6e657869737460008201527f656e7420746f6b656e0000000000000000000000000000000000000000000000602082015250565b7f4552433732313a206d696e7420746f20746865207a65726f2061646472657373600082015250565b7f4552433732313a20617070726f76656420717565727920666f72206e6f6e657860008201527f697374656e7420746f6b656e0000000000000000000000000000000000000000602082015250565b7f4f776e61626c653a2063616c6c6572206973206e6f7420746865206f776e6572600082015250565b7f5369676e657220616e64207369676e617475726520646f206e6f74206d61746360008201527f6800000000000000000000000000000000000000000000000000000000000000602082015250565b7f4552433732314d657461646174613a2055524920717565727920666f72206e6f60008201527f6e6578697374656e7420746f6b656e0000000000000000000000000000000000602082015250565b7f4552433732313a20617070726f76616c20746f2063757272656e74206f776e6560008201527f7200000000000000000000000000000000000000000000000000000000000000602082015250565b7f4552433732313a207472616e736665722063616c6c6572206973206e6f74206f60008201527f776e6572206e6f7220617070726f766564000000000000000000000000000000602082015250565b7f436f707920616c72656164792065786973747300000000000000000000000000600082015250565b613b3481613356565b8114613b3f57600080fd5b50565b613b4b8161337a565b8114613b5657600080fd5b50565b613b6281613386565b8114613b6d57600080fd5b50565b613b7981613390565b8114613b8457600080fd5b50565b613b90816133dc565b8114613b9b57600080fd5b50565b613ba7816133e6565b8114613bb257600080fd5b5056fe4d6574615472616e73616374696f6e2875696e74323536206e6f6e63652c616464726573732066726f6d2c62797465732066756e6374696f6e5369676e617475726529a26469706673582212207691d8f2f088ed63c4ada8a96f922c5f795b6b24117f7a44a48d2f4c9c5bda7364736f6c63430008010033454950373132446f6d61696e28737472696e67206e616d652c737472696e672076657273696f6e2c6164647265737320766572696679696e67436f6e74726163742c627974657333322073616c7429",
  "immutableReferences": {},
  "source": "// SPDX-License-Identifier: MIT\npragma solidity ^0.8.0;\n\nimport \"@openzeppelin/contracts/token/ERC721/ERC721.sol\";\nimport \"@openzeppelin/contracts/utils/Counters.sol\";\nimport \"@openzeppelin/contracts/access/Ownable.sol\";\n\n/**\n * https://github.com/maticnetwork/pos-portal/blob/master/contracts/common/ContextMixin.sol\n */\nabstract contract ContextMixin {\n    function msgSender()\n        internal\n        view\n        returns (address payable sender)\n    {\n        if (msg.sender == address(this)) {\n            bytes memory array = msg.data;\n            uint256 index = msg.data.length;\n            assembly {\n                // Load the 32 bytes word from memory with the address on the lower 20 bytes, \n                // and mask those.\n                sender := and(\n                    mload(add(array, index)),\n                    0xffffffffffffffffffffffffffffffffffffffff\n                )\n            }\n        } else {\n            sender = payable(msg.sender);\n        }\n        return sender;\n    }\n}\n\n/**\n * https://github.com/maticnetwork/pos-portal/blob/master/contracts/common/Initializable.sol\n */\ncontract Initializable {\n    bool inited = false;\n\n    modifier initializer() {\n        require(!inited, \"already inited\");\n        _;\n        inited = true;\n    }\n}\n\n/**\n * https://github.com/maticnetwork/pos-portal/blob/master/contracts/common/EIP712Base.sol\n */\ncontract EIP712Base is Initializable {\n    struct EIP712Domain {\n        string name;\n        string version;\n        address verifyingContract;\n        bytes32 salt;\n    }\n\n    string constant public ERC712_VERSION = \"1\";\n\n    bytes32 internal constant EIP712_DOMAIN_TYPEHASH = keccak256(\n        bytes(\n            \"EIP712Domain(string name,string version,address verifyingContract,bytes32 salt)\"\n        )\n    );\n    bytes32 internal domainSeperator;\n\n    // supposed to be called once while initializing.\n    // one of the contractsa that inherits this contract follows proxy pattern\n    // so it is not possible to do this in a constructor\n    function _initializeEIP712(\n        string memory name\n    )\n        internal\n        initializer\n    {\n        _setDomainSeperator(name);\n    }\n\n    function _setDomainSeperator(string memory name) internal {\n        domainSeperator = keccak256(\n            abi.encode(\n                EIP712_DOMAIN_TYPEHASH,\n                keccak256(bytes(name)),\n                keccak256(bytes(ERC712_VERSION)),\n                address(this),\n                bytes32(getChainId())\n            )\n        );\n    }\n\n    function getDomainSeperator() public view returns (bytes32) {\n        return domainSeperator;\n    }\n\n    function getChainId() public view returns (uint256) {\n        uint256 id;\n        assembly {\n            id := chainid()\n        }\n        return id;\n    }\n\n    /**\n     * Accept message hash and returns hash message in EIP712 compatible form\n     * So that it can be used to recover signer from signature signed using EIP712 formatted data\n     * https://eips.ethereum.org/EIPS/eip-712\n     * \"\\\\x19\" makes the encoding deterministic\n     * \"\\\\x01\" is the version byte to make it compatible to EIP-191\n     */\n    function toTypedMessageHash(bytes32 messageHash)\n        internal\n        view\n        returns (bytes32)\n    {\n        return\n            keccak256(\n                abi.encodePacked(\"\\x19\\x01\", getDomainSeperator(), messageHash)\n            );\n    }\n}\n\n/**\n * https://github.com/maticnetwork/pos-portal/blob/master/contracts/common/NativeMetaTransaction.sol\n */\ncontract NativeMetaTransaction is EIP712Base {\n    bytes32 private constant META_TRANSACTION_TYPEHASH = keccak256(\n        bytes(\n            \"MetaTransaction(uint256 nonce,address from,bytes functionSignature)\"\n        )\n    );\n    event MetaTransactionExecuted(\n        address userAddress,\n        address payable relayerAddress,\n        bytes functionSignature\n    );\n    mapping(address => uint256) nonces;\n\n    /*\n     * Meta transaction structure.\n     * No point of including value field here as if user is doing value transfer then he has the \n     * funds to pay for gas.\n     * He should call the desired function directly in that case.\n     */\n    struct MetaTransaction {\n        uint256 nonce;\n        address from;\n        bytes functionSignature;\n    }\n\n    function executeMetaTransaction(\n        address userAddress,\n        bytes memory functionSignature,\n        bytes32 sigR,\n        bytes32 sigS,\n        uint8 sigV\n    ) public payable returns (bytes memory) {\n        MetaTransaction memory metaTx = MetaTransaction({\n            nonce: nonces[userAddress],\n            from: userAddress,\n            functionSignature: functionSignature\n        });\n        require(\n            verify(userAddress, metaTx, sigR, sigS, sigV),\n            \"Signer and signature do not match\"\n        );\n\n        // increase nonce for user (to avoid re-use)\n        nonces[userAddress] = nonces[userAddress] + 1;\n\n        emit MetaTransactionExecuted(\n            userAddress,\n            payable(msg.sender),\n            functionSignature\n        );\n\n        // Append userAddress and relayer address at the end to extract it from calling context\n        (bool success, bytes memory returnData) = address(this).call(\n            abi.encodePacked(functionSignature, userAddress)\n        );\n        require(success, \"Function call not successful\");\n\n        return returnData;\n    }\n\n    function hashMetaTransaction(MetaTransaction memory metaTx)\n        internal\n        pure\n        returns (bytes32)\n    {\n        return\n            keccak256(\n                abi.encode(\n                    META_TRANSACTION_TYPEHASH,\n                    metaTx.nonce,\n                    metaTx.from,\n                    keccak256(metaTx.functionSignature)\n                )\n            );\n    }\n\n    function getNonce(address user) public view returns (uint256 nonce) {\n        nonce = nonces[user];\n    }\n\n    function verify(\n        address signer,\n        MetaTransaction memory metaTx,\n        bytes32 sigR,\n        bytes32 sigS,\n        uint8 sigV\n    ) internal view returns (bool) {\n        require(signer != address(0), \"NativeMetaTransaction: INVALID_SIGNER\");\n        return\n            signer ==\n            ecrecover(\n                toTypedMessageHash(hashMetaTransaction(metaTx)),\n                sigV,\n                sigR,\n                sigS\n            );\n    }\n}\n\ncontract NFTPhotocopier is ERC721, ContextMixin, NativeMetaTransaction, Ownable {\n\n    using Counters for Counters.Counter;\n    \n    Counters.Counter private _tokenIds;\n\n    mapping (uint256 => string) private _tokenURIs;\n\n    uint256 public photocopyCost = 0;\n\n    constructor () ERC721(\"NFTPhotocopier\", \"NFTP\") {\n        _initializeEIP712(\"NFTPhotocopier\");\n    }\n\n    /**\n     * This is used instead of msg.sender as transactions won't be sent by the original token owner, \n     * but by OpenSea.\n     */\n    function _msgSender()\n        internal\n        override\n        view\n        returns (address sender)\n    {\n        return ContextMixin.msgSender();\n    }\n\n    /**\n    * As another option for supporting trading without requiring meta transactions, \n    * override isApprovedForAll to whitelist OpenSea proxy accounts on Matic\n    */\n    function isApprovedForAll(\n        address _owner,\n        address _operator\n    ) public override view returns (bool isOperator) {\n        if (_operator == address(0x58807baD0B376efc12F5AD86aAc70E78ed67deaE)) {\n            return true;\n        }\n        \n        return ERC721.isApprovedForAll(_owner, _operator);\n    }\n\n    function compareStrings(\n        string memory a, \n        string memory b\n    ) public pure returns (bool) {\n        return (keccak256(abi.encodePacked((a))) == keccak256(abi.encodePacked((b))));\n    }\n\n    /**\n    * \n     */\n    function photocopyNft(\n        string memory originalURI\n    ) public payable returns (uint256) {\n\n        require(msg.value >= photocopyCost);\n\n        for (uint i = 1; i <= _tokenIds.current(); i++) {\n            string memory existingURI = tokenURI(i);\n            if (compareStrings(originalURI, existingURI)) {\n                revert(\"Copy already exists\");\n            }\n        }\n\n        _tokenIds.increment();\n\n        uint256 newItemId = _tokenIds.current();\n        _safeMint(msg.sender, newItemId);\n        _tokenURIs[newItemId] = originalURI;\n\n        return newItemId;\n    }\n\n    function claimEarnings() public onlyOwner {\n        uint256 balance = address(this).balance;\n        address payable sender = payable(msg.sender);\n        sender.transfer(balance);\n    }\n\n    function setCopyPrice(uint256 newPrice) public onlyOwner {\n        photocopyCost = newPrice;\n    }\n\n    function tokenURI(\n        uint256 tokenId\n    ) public view virtual override returns (string memory) {\n        require(_exists(tokenId), \"ERC721Metadata: URI query for nonexistent token\");\n        return _tokenURIs[tokenId];\n    }\n}",
  "sourcePath": "D:\\dapps\\nftphotocopier\\contracts\\NFTPhotocopier.sol",
  "compiler": {
    "name": "solc",
    "version": "0.8.1+commit.df193b15.Emscripten.clang"
  },
  "schemaVersion": "3.4.5",
  "updatedAt": "2022-03-21T07:46:58.355Z",
  "networkType": "ethereum",
  "devdoc": {
    "kind": "dev",
    "methods": {
      "approve(address,uint256)": {
        "details": "See {IERC721-approve}."
      },
      "balanceOf(address)": {
        "details": "See {IERC721-balanceOf}."
      },
      "getApproved(uint256)": {
        "details": "See {IERC721-getApproved}."
      },
      "name()": {
        "details": "See {IERC721Metadata-name}."
      },
      "owner()": {
        "details": "Returns the address of the current owner."
      },
      "ownerOf(uint256)": {
        "details": "See {IERC721-ownerOf}."
      },
      "renounceOwnership()": {
        "details": "Leaves the contract without owner. It will not be possible to call `onlyOwner` functions anymore. Can only be called by the current owner. NOTE: Renouncing ownership will leave the contract without an owner, thereby removing any functionality that is only available to the owner."
      },
      "safeTransferFrom(address,address,uint256)": {
        "details": "See {IERC721-safeTransferFrom}."
      },
      "safeTransferFrom(address,address,uint256,bytes)": {
        "details": "See {IERC721-safeTransferFrom}."
      },
      "setApprovalForAll(address,bool)": {
        "details": "See {IERC721-setApprovalForAll}."
      },
      "supportsInterface(bytes4)": {
        "details": "See {IERC165-supportsInterface}."
      },
      "symbol()": {
        "details": "See {IERC721Metadata-symbol}."
      },
      "tokenURI(uint256)": {
        "details": "See {IERC721Metadata-tokenURI}."
      },
      "transferFrom(address,address,uint256)": {
        "details": "See {IERC721-transferFrom}."
      },
      "transferOwnership(address)": {
        "details": "Transfers ownership of the contract to a new account (`newOwner`). Can only be called by the current owner."
      }
    },
    "version": 1
  },
  "userdoc": {
    "kind": "user",
    "methods": {
      "isApprovedForAll(address,address)": {
        "notice": "As another option for supporting trading without requiring meta transactions,  override isApprovedForAll to whitelist OpenSea proxy accounts on Matic"
      }
    },
    "version": 1
  }
}